:020000040000FA
:020000000528D1
:080008000F2813204D20803069
:10001000562020208B170B170B168B100E288B10D9
:100020003120402009008316031301308600870128
:1000300088018312031388018601A401A501080029
:10004000433061204F306120553061204E306120B7
:100050005430612045306120523061203A306120B7
:100060000800A40A0A302402031D0800A401392054
:100070000800A50A0A302502031D0800A501080092
:10008000C0305620831203132508303E61208312AE
:1000900003132408303E6120080038305620063013
:1000A00056200E30562001305620080007108710C9
:1000B0000715A2006C202208831203138800071181
:1000C0000800071487100715A2006C20220883126D
:1000D0000313880007110800FF30A000FF30A100C3
:0A00E000A10B7028A00B6E28080089
:02400E00313F40
:00000001FF
