:020000040000FA
:100000000128831603138501860187018801831265
:1000100003138601870149309F0083160313803044
:100020009F001720831203138800232011288312B6
:1000300003131F151F191A28831203139E0C83160E
:1000400003131E0C0800A1010808A0000A302002BA
:1000500003193028031C3628A10A0A30A0022628DA
:10006000A10A2108A3000030A2003A282108A30019
:100070002008A20023084120860022084120870092
:10008000112882073F3406345B344F3466346D34B4
:080090007D3407347F346F3426
:02400E00313F40
:00000001FF
